{
  "_format": "hh-sol-artifact-1",
  "contractName": "Crud",
  "sourceName": "contracts/CRUD.sol",
  "abi": [
    {
      "inputs": [
        {
          "internalType": "uint256",
          "name": "id",
          "type": "uint256"
        }
      ],
      "name": "alter",
      "outputs": [],
      "stateMutability": "nonpayable",
      "type": "function"
    },
    {
      "inputs": [
        {
          "internalType": "uint256",
          "name": "",
          "type": "uint256"
        }
      ],
      "name": "clients",
      "outputs": [
        {
          "internalType": "string",
          "name": "name",
          "type": "string"
        },
        {
          "internalType": "string",
          "name": "email",
          "type": "string"
        },
        {
          "internalType": "string",
          "name": "date",
          "type": "string"
        },
        {
          "internalType": "uint8",
          "name": "visible",
          "type": "uint8"
        },
        {
          "internalType": "uint256",
          "name": "cel",
          "type": "uint256"
        },
        {
          "internalType": "uint256",
          "name": "cpf",
          "type": "uint256"
        }
      ],
      "stateMutability": "view",
      "type": "function"
    },
    {
      "inputs": [
        {
          "internalType": "string",
          "name": "name",
          "type": "string"
        },
        {
          "internalType": "string",
          "name": "email",
          "type": "string"
        },
        {
          "internalType": "string",
          "name": "date",
          "type": "string"
        },
        {
          "internalType": "uint256",
          "name": "cpf",
          "type": "uint256"
        },
        {
          "internalType": "uint256",
          "name": "cel",
          "type": "uint256"
        }
      ],
      "name": "create",
      "outputs": [],
      "stateMutability": "nonpayable",
      "type": "function"
    },
    {
      "inputs": [
        {
          "internalType": "uint256",
          "name": "",
          "type": "uint256"
        }
      ],
      "name": "deletedClients",
      "outputs": [
        {
          "internalType": "uint256",
          "name": "",
          "type": "uint256"
        }
      ],
      "stateMutability": "view",
      "type": "function"
    },
    {
      "inputs": [],
      "name": "read",
      "outputs": [
        {
          "internalType": "uint256",
          "name": "",
          "type": "uint256"
        }
      ],
      "stateMutability": "view",
      "type": "function"
    },
    {
      "inputs": [
        {
          "internalType": "uint256",
          "name": "id",
          "type": "uint256"
        }
      ],
      "name": "remove",
      "outputs": [],
      "stateMutability": "nonpayable",
      "type": "function"
    }
  ],
  "bytecode": "0x608060405234801561001057600080fd5b506110c9806100206000396000f3fe608060405234801561001057600080fd5b50600436106100625760003560e01c806326f327f91461006757806344c29e32146100975780634cc82215146100b357806357de26a4146100cf578063b53c2b0b146100ed578063f88af21d14610109575b600080fd5b610081600480360381019061007c9190610891565b61013e565b60405161008e91906108cd565b60405180910390f35b6100b160048036038101906100ac919061094d565b610162565b005b6100cd60048036038101906100c89190610891565b610313565b005b6100d761049c565b6040516100e491906108cd565b60405180910390f35b61010760048036038101906101029190610891565b6104a8565b005b610123600480360381019061011e9190610891565b610603565b60405161013596959493929190610ad5565b60405180910390f35b6001818154811061014e57600080fd5b906000526020600020016000915090505481565b60006040518060c001604052808a8a8080601f016020809104026020016040519081016040528093929190818152602001838380828437600081840152601f19601f82011690508083019250505050505050815260200188888080601f016020809104026020016040519081016040528093929190818152602001838380828437600081840152601f19601f82011690508083019250505050505050815260200186868080601f016020809104026020016040519081016040528093929190818152602001838380828437600081840152601f19601f820116905080830192505050505050508152602001600160ff168152602001848152602001838152509050600081908060018154018082558091505060019003906000526020600020906006020160009091909190915060008201518160000190816102a49190610d86565b5060208201518160010190816102ba9190610d86565b5060408201518160020190816102d09190610d86565b5060608201518160030160006101000a81548160ff021916908360ff1602179055506080820151816004015560a082015181600501555050505050505050505050565b60008190505b600160008054905061032b9190610e87565b8110156104195760006001826103419190610ebb565b8154811061035257610351610eef565b5b90600052602060002090600602016000828154811061037457610373610eef565b5b9060005260206000209060060201600082018160000190816103969190610f34565b50600182018160010190816103ab9190610f34565b50600282018160020190816103c09190610f34565b506003820160009054906101000a900460ff168160030160006101000a81548160ff021916908360ff160217905550600482015481600401556005820154816005015590505080806104119061101c565b915050610319565b50600080548061042c5761042b611064565b5b60019003818190600052602060002090600602016000808201600061045191906107f4565b60018201600061046191906107f4565b60028201600061047191906107f4565b6003820160006101000a81549060ff0219169055600482016000905560058201600090555050905550565b60008080549050905090565b600060016000805490506104bc9190610e87565b815481106104cd576104cc610eef565b5b9060005260206000209060060201600082815481106104ef576104ee610eef565b5b9060005260206000209060060201600082018160000190816105119190610f34565b50600182018160010190816105269190610f34565b506002820181600201908161053b9190610f34565b506003820160009054906101000a900460ff168160030160006101000a81548160ff021916908360ff1602179055506004820154816004015560058201548160050155905050600080548061059357610592611064565b5b6001900381819060005260206000209060060201600080820160006105b891906107f4565b6001820160006105c891906107f4565b6002820160006105d891906107f4565b6003820160006101000a81549060ff0219169055600482016000905560058201600090555050905550565b6000818154811061061357600080fd5b906000526020600020906006020160009150905080600001805461063690610ba9565b80601f016020809104026020016040519081016040528092919081815260200182805461066290610ba9565b80156106af5780601f10610684576101008083540402835291602001916106af565b820191906000526020600020905b81548152906001019060200180831161069257829003601f168201915b5050505050908060010180546106c490610ba9565b80601f01602080910402602001604051908101604052809291908181526020018280546106f090610ba9565b801561073d5780601f106107125761010080835404028352916020019161073d565b820191906000526020600020905b81548152906001019060200180831161072057829003601f168201915b50505050509080600201805461075290610ba9565b80601f016020809104026020016040519081016040528092919081815260200182805461077e90610ba9565b80156107cb5780601f106107a0576101008083540402835291602001916107cb565b820191906000526020600020905b8154815290600101906020018083116107ae57829003601f168201915b5050505050908060030160009054906101000a900460ff16908060040154908060050154905086565b50805461080090610ba9565b6000825580601f106108125750610831565b601f0160209004906000526020600020908101906108309190610834565b5b50565b5b8082111561084d576000816000905550600101610835565b5090565b600080fd5b600080fd5b6000819050919050565b61086e8161085b565b811461087957600080fd5b50565b60008135905061088b81610865565b92915050565b6000602082840312156108a7576108a6610851565b5b60006108b58482850161087c565b91505092915050565b6108c78161085b565b82525050565b60006020820190506108e260008301846108be565b92915050565b600080fd5b600080fd5b600080fd5b60008083601f84011261090d5761090c6108e8565b5b8235905067ffffffffffffffff81111561092a576109296108ed565b5b602083019150836001820283011115610946576109456108f2565b5b9250929050565b60008060008060008060008060a0898b03121561096d5761096c610851565b5b600089013567ffffffffffffffff81111561098b5761098a610856565b5b6109978b828c016108f7565b9850985050602089013567ffffffffffffffff8111156109ba576109b9610856565b5b6109c68b828c016108f7565b9650965050604089013567ffffffffffffffff8111156109e9576109e8610856565b5b6109f58b828c016108f7565b94509450506060610a088b828c0161087c565b9250506080610a198b828c0161087c565b9150509295985092959890939650565b600081519050919050565b600082825260208201905092915050565b60005b83811015610a63578082015181840152602081019050610a48565b60008484015250505050565b6000601f19601f8301169050919050565b6000610a8b82610a29565b610a958185610a34565b9350610aa5818560208601610a45565b610aae81610a6f565b840191505092915050565b600060ff82169050919050565b610acf81610ab9565b82525050565b600060c0820190508181036000830152610aef8189610a80565b90508181036020830152610b038188610a80565b90508181036040830152610b178187610a80565b9050610b266060830186610ac6565b610b3360808301856108be565b610b4060a08301846108be565b979650505050505050565b7f4e487b7100000000000000000000000000000000000000000000000000000000600052604160045260246000fd5b7f4e487b7100000000000000000000000000000000000000000000000000000000600052602260045260246000fd5b60006002820490506001821680610bc157607f821691505b602082108103610bd457610bd3610b7a565b5b50919050565b60008190508160005260206000209050919050565b60006020601f8301049050919050565b600082821b905092915050565b600060088302610c3c7fffffffffffffffffffffffffffffffffffffffffffffffffffffffffffffffff82610bff565b610c468683610bff565b95508019841693508086168417925050509392505050565b6000819050919050565b6000610c83610c7e610c798461085b565b610c5e565b61085b565b9050919050565b6000819050919050565b610c9d83610c68565b610cb1610ca982610c8a565b848454610c0c565b825550505050565b600090565b610cc6610cb9565b610cd1818484610c94565b505050565b5b81811015610cf557610cea600082610cbe565b600181019050610cd7565b5050565b601f821115610d3a57610d0b81610bda565b610d1484610bef565b81016020851015610d23578190505b610d37610d2f85610bef565b830182610cd6565b50505b505050565b600082821c905092915050565b6000610d5d60001984600802610d3f565b1980831691505092915050565b6000610d768383610d4c565b9150826002028217905092915050565b610d8f82610a29565b67ffffffffffffffff811115610da857610da7610b4b565b5b610db28254610ba9565b610dbd828285610cf9565b600060209050601f831160018114610df05760008415610dde578287015190505b610de88582610d6a565b865550610e50565b601f198416610dfe86610bda565b60005b82811015610e2657848901518255600182019150602085019450602081019050610e01565b86831015610e435784890151610e3f601f891682610d4c565b8355505b6001600288020188555050505b505050505050565b7f4e487b7100000000000000000000000000000000000000000000000000000000600052601160045260246000fd5b6000610e928261085b565b9150610e9d8361085b565b9250828203905081811115610eb557610eb4610e58565b5b92915050565b6000610ec68261085b565b9150610ed18361085b565b9250828201905080821115610ee957610ee8610e58565b5b92915050565b7f4e487b7100000000000000000000000000000000000000000000000000000000600052603260045260246000fd5b600081549050610f2d81610ba9565b9050919050565b818103610f4257505061101a565b610f4b82610f1e565b67ffffffffffffffff811115610f6457610f63610b4b565b5b610f6e8254610ba9565b610f79828285610cf9565b6000601f831160018114610fa85760008415610f96578287015490505b610fa08582610d6a565b865550611013565b601f198416610fb687610bda565b9650610fc186610bda565b60005b82811015610fe957848901548255600182019150600185019450602081019050610fc4565b868310156110065784890154611002601f891682610d4c565b8355505b6001600288020188555050505b5050505050505b565b60006110278261085b565b91507fffffffffffffffffffffffffffffffffffffffffffffffffffffffffffffffff820361105957611058610e58565b5b600182019050919050565b7f4e487b7100000000000000000000000000000000000000000000000000000000600052603160045260246000fdfea26469706673582212208a6dd56734e6e612ac13acef8a27fe60386cdefe7bac38fb7516ac483e95310a64736f6c63430008110033",
  "linkReferences": {},
  "deployedLinkReferences": {}
}